{
  "contractName": "Item",
  "abi": [
    {
      "inputs": [
        {
          "internalType": "contract ItemTransfer",
          "name": "_parentContract",
          "type": "address"
        },
        {
          "internalType": "uint256",
          "name": "_priceinWei",
          "type": "uint256"
        },
        {
          "internalType": "uint256",
          "name": "_index",
          "type": "uint256"
        }
      ],
      "stateMutability": "nonpayable",
      "type": "constructor"
    },
    {
      "stateMutability": "nonpayable",
      "type": "fallback"
    },
    {
      "inputs": [],
      "name": "index",
      "outputs": [
        {
          "internalType": "uint256",
          "name": "",
          "type": "uint256"
        }
      ],
      "stateMutability": "view",
      "type": "function"
    },
    {
      "inputs": [],
      "name": "itemPriceWei",
      "outputs": [
        {
          "internalType": "uint256",
          "name": "",
          "type": "uint256"
        }
      ],
      "stateMutability": "view",
      "type": "function"
    },
    {
      "inputs": [],
      "name": "pricePayed",
      "outputs": [
        {
          "internalType": "uint256",
          "name": "",
          "type": "uint256"
        }
      ],
      "stateMutability": "view",
      "type": "function"
    },
    {
      "stateMutability": "payable",
      "type": "receive"
    }
  ],
  "bytecode": "0x608060405234801561001057600080fd5b50604051610747380380610747833981810160405281019061003291906100b3565b816000819055508060028190555082600360006101000a81548173ffffffffffffffffffffffffffffffffffffffff021916908373ffffffffffffffffffffffffffffffffffffffff16021790555050505061017e565b60008151905061009881610150565b92915050565b6000815190506100ad81610167565b92915050565b6000806000606084860312156100c857600080fd5b60006100d686828701610089565b93505060206100e78682870161009e565b92505060406100f88682870161009e565b9150509250925092565b600061010d82610126565b9050919050565b600061011f82610102565b9050919050565b600073ffffffffffffffffffffffffffffffffffffffff82169050919050565b6000819050919050565b61015981610114565b811461016457600080fd5b50565b61017081610146565b811461017b57600080fd5b50565b6105ba8061018d6000396000f3fe6080604052600436106100385760003560e01c80632986c0e514610250578063733f06d71461027b578063ee55158b146102a657610241565b3661024157600060015414610082576040517f08c379a000000000000000000000000000000000000000000000000000000000815260040161007990610460565b60405180910390fd5b34600054146100c6576040517f08c379a00000000000000000000000000000000000000000000000000000000081526004016100bd90610420565b60405180910390fd5b34600160008282546100d891906104c2565b925050819055506000600360009054906101000a900473ffffffffffffffffffffffffffffffffffffffff1673ffffffffffffffffffffffffffffffffffffffff163460025460405160240161012e9190610480565b6040516020818303038152906040527f800fb83f000000000000000000000000000000000000000000000000000000007bffffffffffffffffffffffffffffffffffffffffffffffffffffffff19166020820180517bffffffffffffffffffffffffffffffffffffffffffffffffffffffff83818316178352505050506040516101b89190610409565b60006040518083038185875af1925050503d80600081146101f5576040519150601f19603f3d011682016040523d82523d6000602084013e6101fa565b606091505b505090508061023e576040517f08c379a000000000000000000000000000000000000000000000000000000000815260040161023590610440565b60405180910390fd5b50005b34801561024d57600080fd5b50005b34801561025c57600080fd5b506102656102d1565b6040516102729190610480565b60405180910390f35b34801561028757600080fd5b506102906102d7565b60405161029d9190610480565b60405180910390f35b3480156102b257600080fd5b506102bb6102dd565b6040516102c89190610480565b60405180910390f35b60025481565b60005481565b60015481565b60006102ee8261049b565b6102f881856104a6565b9350610308818560208601610522565b80840191505092915050565b60006103216033836104b1565b91507f6e65656420746f207061792066756c6c20616d742c207061727469616c20706160008301527f796d656e74206e6f7420726563657661626c65000000000000000000000000006020830152604082019050919050565b6000610387601a836104b1565b91507f4e6f74207375636365737366756c6c2063616e63656c6c696e670000000000006000830152602082019050919050565b60006103c7600d836104b1565b91507f706179656420616c7265616479000000000000000000000000000000000000006000830152602082019050919050565b61040381610518565b82525050565b600061041582846102e3565b915081905092915050565b6000602082019050818103600083015261043981610314565b9050919050565b600060208201905081810360008301526104598161037a565b9050919050565b60006020820190508181036000830152610479816103ba565b9050919050565b600060208201905061049560008301846103fa565b92915050565b600081519050919050565b600081905092915050565b600082825260208201905092915050565b60006104cd82610518565b91506104d883610518565b9250827fffffffffffffffffffffffffffffffffffffffffffffffffffffffffffffffff0382111561050d5761050c610555565b5b828201905092915050565b6000819050919050565b60005b83811015610540578082015181840152602081019050610525565b8381111561054f576000848401525b50505050565b7f4e487b7100000000000000000000000000000000000000000000000000000000600052601160045260246000fdfea26469706673582212209cce22b9881e73c42f73971d6349b6b71580f0f0eecf36a8874809db5e7e9e5a64736f6c63430008000033",
  "immutableReferences": {},
  "source": "pragma solidity >=0.7.0 <0.9.0;\n\nimport \"./ItemTransfer.sol\";\n\ncontract Item {\n    uint256 public itemPriceWei;\n    uint256 public pricePayed;\n    uint256 public index;\n\n    ItemTransfer parentContract;\n\n    constructor(\n        ItemTransfer _parentContract,\n        uint256 _priceinWei,\n        uint256 _index\n    ) public {\n        itemPriceWei = _priceinWei;\n        index = _index;\n        parentContract = _parentContract;\n    }\n\n    receive() external payable {\n        require(pricePayed == 0, \"payed already\");\n        require(\n            itemPriceWei == msg.value,\n            \"need to pay full amt, partial payment not recevable\"\n        );\n        pricePayed += msg.value;\n        (bool success, ) = address(parentContract).call{value: msg.value}(\n            abi.encodeWithSignature(\"triggerPayment(uint256)\", index)\n        );\n        require(success, \"Not successfull cancelling\");\n    }\n\n    fallback() external {}\n}\n",
  "sourcePath": "/home/rafsal/01-Development/oHwaH/Ethereum/truffle_t01/contracts/Item.sol",
  "compiler": {
    "name": "solc",
    "version": "0.8.0+commit.c7dfd78e.Emscripten.clang"
  },
  "schemaVersion": "3.4.4",
  "updatedAt": "2021-12-31T11:19:28.720Z",
  "devdoc": {
    "kind": "dev",
    "methods": {},
    "version": 1
  },
  "userdoc": {
    "kind": "user",
    "methods": {},
    "version": 1
  }
}