{
  "contractName": "ItemTransfer",
  "abi": [
    {
      "anonymous": false,
      "inputs": [
        {
          "indexed": true,
          "internalType": "address",
          "name": "previousOwner",
          "type": "address"
        },
        {
          "indexed": true,
          "internalType": "address",
          "name": "newOwner",
          "type": "address"
        }
      ],
      "name": "OwnershipTransferred",
      "type": "event"
    },
    {
      "anonymous": false,
      "inputs": [
        {
          "indexed": false,
          "internalType": "uint256",
          "name": "_itemprice",
          "type": "uint256"
        },
        {
          "indexed": false,
          "internalType": "uint256",
          "name": "_step",
          "type": "uint256"
        },
        {
          "indexed": false,
          "internalType": "address",
          "name": "_item",
          "type": "address"
        }
      ],
      "name": "SupplayCHainStep",
      "type": "event"
    },
    {
      "inputs": [
        {
          "internalType": "uint256",
          "name": "",
          "type": "uint256"
        }
      ],
      "name": "Items",
      "outputs": [
        {
          "internalType": "contract Item",
          "name": "_item",
          "type": "address"
        },
        {
          "internalType": "string",
          "name": "_itemname",
          "type": "string"
        },
        {
          "internalType": "uint256",
          "name": "_itemprice",
          "type": "uint256"
        },
        {
          "internalType": "enum ItemTransfer.supplayChainState",
          "name": "_state",
          "type": "uint8"
        }
      ],
      "stateMutability": "view",
      "type": "function",
      "constant": true
    },
    {
      "inputs": [],
      "name": "owner",
      "outputs": [
        {
          "internalType": "address",
          "name": "",
          "type": "address"
        }
      ],
      "stateMutability": "view",
      "type": "function",
      "constant": true
    },
    {
      "inputs": [],
      "name": "renounceOwnership",
      "outputs": [],
      "stateMutability": "nonpayable",
      "type": "function"
    },
    {
      "inputs": [
        {
          "internalType": "address",
          "name": "newOwner",
          "type": "address"
        }
      ],
      "name": "transferOwnership",
      "outputs": [],
      "stateMutability": "nonpayable",
      "type": "function"
    },
    {
      "inputs": [
        {
          "internalType": "string",
          "name": "_itemname",
          "type": "string"
        },
        {
          "internalType": "uint256",
          "name": "_itemprice",
          "type": "uint256"
        }
      ],
      "name": "createItem",
      "outputs": [],
      "stateMutability": "nonpayable",
      "type": "function"
    },
    {
      "inputs": [
        {
          "internalType": "uint256",
          "name": "_itemIndex",
          "type": "uint256"
        }
      ],
      "name": "triggerPayment",
      "outputs": [],
      "stateMutability": "payable",
      "type": "function",
      "payable": true
    },
    {
      "inputs": [
        {
          "internalType": "uint256",
          "name": "_itemIndex",
          "type": "uint256"
        }
      ],
      "name": "triggerTransfer",
      "outputs": [],
      "stateMutability": "nonpayable",
      "type": "function"
    }
  ],
  "bytecode": "0x608060405234801561001057600080fd5b5061002d61002261003260201b60201c565b61003a60201b60201c565b6100fe565b600033905090565b60008060009054906101000a900473ffffffffffffffffffffffffffffffffffffffff169050816000806101000a81548173ffffffffffffffffffffffffffffffffffffffff021916908373ffffffffffffffffffffffffffffffffffffffff1602179055508173ffffffffffffffffffffffffffffffffffffffff168173ffffffffffffffffffffffffffffffffffffffff167f8be0079c531659141344cd1fd0a4f28419497f9722a3daafe3b4186f6b6457e060405160405180910390a35050565b611ca28061010d6000396000f3fe6080604052600436106200007a5760003560e01c8063800fb83f1162000055578063800fb83f146200010e5780638c551742146200012e5780638da5cb5b146200015c578063f2fde38b146200018c576200007a565b806317b47cc4146200007f5780635fbbce8a14620000c6578063715018a614620000f4575b600080fd5b3480156200008c57600080fd5b50620000ab6004803603810190620000a5919062000ea7565b620001ba565b604051620000bd9493929190620010f1565b60405180910390f35b348015620000d357600080fd5b50620000f26004803603810190620000ec919062000ea7565b620002a7565b005b3480156200010157600080fd5b506200010c6200053f565b005b6200012c600480360381019062000126919062000ea7565b620005d0565b005b3480156200013b57600080fd5b506200015a600480360381019062000154919062000e4d565b6200083f565b005b3480156200016957600080fd5b506200017462000aca565b60405162000183919062001097565b60405180910390f35b3480156200019957600080fd5b50620001b86004803603810190620001b2919062000e21565b62000af3565b005b60016020528060005260406000206000915090508060000160009054906101000a900473ffffffffffffffffffffffffffffffffffffffff1690806001018054620002059062001389565b80601f0160208091040260200160405190810160405280929190818152602001828054620002339062001389565b8015620002845780601f10620002585761010080835404028352916020019162000284565b820191906000526020600020905b8154815290600101906020018083116200026657829003601f168201915b5050505050908060020154908060030160009054906101000a900460ff16905084565b620002b162000bf7565b73ffffffffffffffffffffffffffffffffffffffff16620002d162000aca565b73ffffffffffffffffffffffffffffffffffffffff16146200032a576040517f08c379a0000000000000000000000000000000000000000000000000000000008152600401620003219062001167565b60405180910390fd5b6001600281111562000365577f4e487b7100000000000000000000000000000000000000000000000000000000600052602160045260246000fd5b6001600083815260200190815260200160002060030160009054906101000a900460ff166002811115620003c2577f4e487b7100000000000000000000000000000000000000000000000000000000600052602160045260246000fd5b1462000405576040517f08c379a0000000000000000000000000000000000000000000000000000000008152600401620003fc90620011ab565b60405180910390fd5b60026001600083815260200190815260200160002060030160006101000a81548160ff0219169083600281111562000466577f4e487b7100000000000000000000000000000000000000000000000000000000600052602160045260246000fd5b02179055507f732ec1a836e3be6184343326b31fc9e0d00ca228e1ecf7dd7550bde565e8fca08160016000600254815260200190815260200160002060030160009054906101000a900460ff166002811115620004ec577f4e487b7100000000000000000000000000000000000000000000000000000000600052602160045260246000fd5b6001600085815260200190815260200160002060000160009054906101000a900473ffffffffffffffffffffffffffffffffffffffff166040516200053493929190620011cd565b60405180910390a150565b6200054962000bf7565b73ffffffffffffffffffffffffffffffffffffffff166200056962000aca565b73ffffffffffffffffffffffffffffffffffffffff1614620005c2576040517f08c379a0000000000000000000000000000000000000000000000000000000008152600401620005b99062001167565b60405180910390fd5b620005ce600062000bff565b565b346001600083815260200190815260200160002060020154146200062b576040517f08c379a0000000000000000000000000000000000000000000000000000000008152600401620006229062001189565b60405180910390fd5b6000600281111562000666577f4e487b7100000000000000000000000000000000000000000000000000000000600052602160045260246000fd5b6001600083815260200190815260200160002060030160009054906101000a900460ff166002811115620006c3577f4e487b7100000000000000000000000000000000000000000000000000000000600052602160045260246000fd5b1462000706576040517f08c379a0000000000000000000000000000000000000000000000000000000008152600401620006fd90620011ab565b60405180910390fd5b600180600083815260200190815260200160002060030160006101000a81548160ff0219169083600281111562000766577f4e487b7100000000000000000000000000000000000000000000000000000000600052602160045260246000fd5b02179055507f732ec1a836e3be6184343326b31fc9e0d00ca228e1ecf7dd7550bde565e8fca08160016000600254815260200190815260200160002060030160009054906101000a900460ff166002811115620007ec577f4e487b7100000000000000000000000000000000000000000000000000000000600052602160045260246000fd5b6001600085815260200190815260200160002060000160009054906101000a900473ffffffffffffffffffffffffffffffffffffffff166040516200083493929190620011cd565b60405180910390a150565b6200084962000bf7565b73ffffffffffffffffffffffffffffffffffffffff166200086962000aca565b73ffffffffffffffffffffffffffffffffffffffff1614620008c2576040517f08c379a0000000000000000000000000000000000000000000000000000000008152600401620008b99062001167565b60405180910390fd5b60003082600254604051620008d79062000cc3565b620008e593929190620010b4565b604051809103906000f08015801562000902573d6000803e3d6000fd5b5090508060016000600254815260200190815260200160002060000160006101000a81548173ffffffffffffffffffffffffffffffffffffffff021916908373ffffffffffffffffffffffffffffffffffffffff1602179055508260016000600254815260200190815260200160002060010190805190602001906200098a92919062000cd1565b508160016000600254815260200190815260200160002060020181905550600060016000600254815260200190815260200160002060030160006101000a81548160ff0219169083600281111562000a0b577f4e487b7100000000000000000000000000000000000000000000000000000000600052602160045260246000fd5b02179055507f732ec1a836e3be6184343326b31fc9e0d00ca228e1ecf7dd7550bde565e8fca08260016000600254815260200190815260200160002060030160009054906101000a900460ff16600281111562000a91577f4e487b7100000000000000000000000000000000000000000000000000000000600052602160045260246000fd5b8360405162000aa393929190620011cd565b60405180910390a16002600081548092919062000ac090620013bf565b9190505550505050565b60008060009054906101000a900473ffffffffffffffffffffffffffffffffffffffff16905090565b62000afd62000bf7565b73ffffffffffffffffffffffffffffffffffffffff1662000b1d62000aca565b73ffffffffffffffffffffffffffffffffffffffff161462000b76576040517f08c379a000000000000000000000000000000000000000000000000000000000815260040162000b6d9062001167565b60405180910390fd5b600073ffffffffffffffffffffffffffffffffffffffff168173ffffffffffffffffffffffffffffffffffffffff16141562000be9576040517f08c379a000000000000000000000000000000000000000000000000000000000815260040162000be09062001145565b60405180910390fd5b62000bf48162000bff565b50565b600033905090565b60008060009054906101000a900473ffffffffffffffffffffffffffffffffffffffff169050816000806101000a81548173ffffffffffffffffffffffffffffffffffffffff021916908373ffffffffffffffffffffffffffffffffffffffff1602179055508173ffffffffffffffffffffffffffffffffffffffff168173ffffffffffffffffffffffffffffffffffffffff167f8be0079c531659141344cd1fd0a4f28419497f9722a3daafe3b4186f6b6457e060405160405180910390a35050565b610747806200152683390190565b82805462000cdf9062001389565b90600052602060002090601f01602090048101928262000d03576000855562000d4f565b82601f1062000d1e57805160ff191683800117855562000d4f565b8280016001018555821562000d4f579182015b8281111562000d4e57825182559160200191906001019062000d31565b5b50905062000d5e919062000d62565b5090565b5b8082111562000d7d57600081600090555060010162000d63565b5090565b600062000d9862000d92846200123e565b6200120a565b90508281526020810184848401111562000db157600080fd5b62000dbe84828562001344565b509392505050565b60008135905062000dd781620014f1565b92915050565b600082601f83011262000def57600080fd5b813562000e0184826020860162000d81565b91505092915050565b60008135905062000e1b816200150b565b92915050565b60006020828403121562000e3457600080fd5b600062000e448482850162000dc6565b91505092915050565b6000806040838503121562000e6157600080fd5b600083013567ffffffffffffffff81111562000e7c57600080fd5b62000e8a8582860162000ddd565b925050602062000e9d8582860162000e0a565b9150509250929050565b60006020828403121562000eba57600080fd5b600062000eca8482850162000e0a565b91505092915050565b62000ede816200128d565b82525050565b62000eef81620012e0565b82525050565b62000f008162001308565b82525050565b62000f118162001330565b82525050565b600062000f248262001271565b62000f3081856200127c565b935062000f4281856020860162001353565b62000f4d81620014c9565b840191505092915050565b600062000f676026836200127c565b91507f4f776e61626c653a206e6577206f776e657220697320746865207a65726f206160008301527f64647265737300000000000000000000000000000000000000000000000000006020830152604082019050919050565b600062000fcf6020836200127c565b91507f4f776e61626c653a2063616c6c6572206973206e6f7420746865206f776e65726000830152602082019050919050565b600062001011601a836200127c565b91507f4f6e6c792066756c6c207061796d656e742061636365707465640000000000006000830152602082019050919050565b600062001053601d836200127c565b91507f4974656d206973206675727468657220696e2074686520636861696e200000006000830152602082019050919050565b6200109181620012d6565b82525050565b6000602082019050620010ae600083018462000ed3565b92915050565b6000606082019050620010cb600083018662000ee4565b620010da602083018562001086565b620010e9604083018462001086565b949350505050565b600060808201905062001108600083018762000ef5565b81810360208301526200111c818662000f17565b90506200112d604083018562001086565b6200113c606083018462000f06565b95945050505050565b60006020820190508181036000830152620011608162000f58565b9050919050565b60006020820190508181036000830152620011828162000fc0565b9050919050565b60006020820190508181036000830152620011a48162001002565b9050919050565b60006020820190508181036000830152620011c68162001044565b9050919050565b6000606082019050620011e4600083018662001086565b620011f3602083018562001086565b62001202604083018462000ed3565b949350505050565b6000604051905081810181811067ffffffffffffffff821117156200123457620012336200149a565b5b8060405250919050565b600067ffffffffffffffff8211156200125c576200125b6200149a565b5b601f19601f8301169050602081019050919050565b600081519050919050565b600082825260208201905092915050565b60006200129a82620012b6565b9050919050565b6000819050620012b182620014da565b919050565b600073ffffffffffffffffffffffffffffffffffffffff82169050919050565b6000819050919050565b6000620012ed82620012f4565b9050919050565b60006200130182620012b6565b9050919050565b600062001315826200131c565b9050919050565b60006200132982620012b6565b9050919050565b60006200133d82620012a1565b9050919050565b82818337600083830152505050565b60005b838110156200137357808201518184015260208101905062001356565b8381111562001383576000848401525b50505050565b60006002820490506001821680620013a257607f821691505b60208210811415620013b957620013b86200146b565b5b50919050565b6000620013cc82620012d6565b91507fffffffffffffffffffffffffffffffffffffffffffffffffffffffffffffffff8214156200140257620014016200140d565b5b600182019050919050565b7f4e487b7100000000000000000000000000000000000000000000000000000000600052601160045260246000fd5b7f4e487b7100000000000000000000000000000000000000000000000000000000600052602160045260246000fd5b7f4e487b7100000000000000000000000000000000000000000000000000000000600052602260045260246000fd5b7f4e487b7100000000000000000000000000000000000000000000000000000000600052604160045260246000fd5b6000601f19601f8301169050919050565b60038110620014ee57620014ed6200143c565b5b50565b620014fc816200128d565b81146200150857600080fd5b50565b6200151681620012d6565b81146200152257600080fd5b5056fe608060405234801561001057600080fd5b50604051610747380380610747833981810160405281019061003291906100b3565b816000819055508060028190555082600360006101000a81548173ffffffffffffffffffffffffffffffffffffffff021916908373ffffffffffffffffffffffffffffffffffffffff16021790555050505061017e565b60008151905061009881610150565b92915050565b6000815190506100ad81610167565b92915050565b6000806000606084860312156100c857600080fd5b60006100d686828701610089565b93505060206100e78682870161009e565b92505060406100f88682870161009e565b9150509250925092565b600061010d82610126565b9050919050565b600061011f82610102565b9050919050565b600073ffffffffffffffffffffffffffffffffffffffff82169050919050565b6000819050919050565b61015981610114565b811461016457600080fd5b50565b61017081610146565b811461017b57600080fd5b50565b6105ba8061018d6000396000f3fe6080604052600436106100385760003560e01c80632986c0e514610250578063733f06d71461027b578063ee55158b146102a657610241565b3661024157600060015414610082576040517f08c379a000000000000000000000000000000000000000000000000000000000815260040161007990610460565b60405180910390fd5b34600054146100c6576040517f08c379a00000000000000000000000000000000000000000000000000000000081526004016100bd90610420565b60405180910390fd5b34600160008282546100d891906104c2565b925050819055506000600360009054906101000a900473ffffffffffffffffffffffffffffffffffffffff1673ffffffffffffffffffffffffffffffffffffffff163460025460405160240161012e9190610480565b6040516020818303038152906040527f800fb83f000000000000000000000000000000000000000000000000000000007bffffffffffffffffffffffffffffffffffffffffffffffffffffffff19166020820180517bffffffffffffffffffffffffffffffffffffffffffffffffffffffff83818316178352505050506040516101b89190610409565b60006040518083038185875af1925050503d80600081146101f5576040519150601f19603f3d011682016040523d82523d6000602084013e6101fa565b606091505b505090508061023e576040517f08c379a000000000000000000000000000000000000000000000000000000000815260040161023590610440565b60405180910390fd5b50005b34801561024d57600080fd5b50005b34801561025c57600080fd5b506102656102d1565b6040516102729190610480565b60405180910390f35b34801561028757600080fd5b506102906102d7565b60405161029d9190610480565b60405180910390f35b3480156102b257600080fd5b506102bb6102dd565b6040516102c89190610480565b60405180910390f35b60025481565b60005481565b60015481565b60006102ee8261049b565b6102f881856104a6565b9350610308818560208601610522565b80840191505092915050565b60006103216033836104b1565b91507f6e65656420746f207061792066756c6c20616d742c207061727469616c20706160008301527f796d656e74206e6f7420726563657661626c65000000000000000000000000006020830152604082019050919050565b6000610387601a836104b1565b91507f4e6f74207375636365737366756c6c2063616e63656c6c696e670000000000006000830152602082019050919050565b60006103c7600d836104b1565b91507f706179656420616c7265616479000000000000000000000000000000000000006000830152602082019050919050565b61040381610518565b82525050565b600061041582846102e3565b915081905092915050565b6000602082019050818103600083015261043981610314565b9050919050565b600060208201905081810360008301526104598161037a565b9050919050565b60006020820190508181036000830152610479816103ba565b9050919050565b600060208201905061049560008301846103fa565b92915050565b600081519050919050565b600081905092915050565b600082825260208201905092915050565b60006104cd82610518565b91506104d883610518565b9250827fffffffffffffffffffffffffffffffffffffffffffffffffffffffffffffffff0382111561050d5761050c610555565b5b828201905092915050565b6000819050919050565b60005b83811015610540578082015181840152602081019050610525565b8381111561054f576000848401525b50505050565b7f4e487b7100000000000000000000000000000000000000000000000000000000600052601160045260246000fdfea26469706673582212209cce22b9881e73c42f73971d6349b6b71580f0f0eecf36a8874809db5e7e9e5a64736f6c63430008000033a2646970667358221220e3e7eb3d1924e7dc24f434379d8a4cc3222f24578c6df7b649ad4607e65bd3d464736f6c63430008000033",
  "immutableReferences": {},
  "source": "pragma solidity >=0.7.0 <0.9.0;\nimport \"./Ownable.sol\";\nimport \"./Item.sol\";\n\ncontract ItemTransfer is Ownable {\n    enum supplayChainState {\n        Created,\n        Payed,\n        Delevered\n    }\n\n    struct s_Item {\n        Item _item;\n        string _itemname;\n        uint256 _itemprice;\n        ItemTransfer.supplayChainState _state;\n    }\n\n    mapping(uint256 => s_Item) public Items;\n    uint256 itemIndex;\n\n    event SupplayCHainStep(uint256 _itemprice, uint256 _step, address _item);\n\n    function createItem(string memory _itemname, uint256 _itemprice)\n        public\n        onlyOwner\n    {\n        Item item = new Item(this, _itemprice, itemIndex);\n        Items[itemIndex]._item = item;\n        Items[itemIndex]._itemname = _itemname;\n        Items[itemIndex]._itemprice = _itemprice;\n        Items[itemIndex]._state = supplayChainState.Created;\n        emit SupplayCHainStep(\n            _itemprice,\n            uint256(Items[itemIndex]._state),\n            address(item)\n        );\n        itemIndex++;\n    }\n\n    function triggerPayment(uint256 _itemIndex) public payable {\n        require(\n            Items[_itemIndex]._itemprice == msg.value,\n            \"Only full payment accepted\"\n        );\n        require(\n            Items[_itemIndex]._state == supplayChainState.Created,\n            \"Item is further in the chain \"\n        );\n\n        Items[_itemIndex]._state = supplayChainState.Payed;\n        emit SupplayCHainStep(\n            _itemIndex,\n            uint256(Items[itemIndex]._state),\n            address(Items[_itemIndex]._item)\n        );\n    }\n\n    function triggerTransfer(uint256 _itemIndex) public onlyOwner {\n        require(\n            Items[_itemIndex]._state == supplayChainState.Payed,\n            \"Item is further in the chain \"\n        );\n        Items[_itemIndex]._state = supplayChainState.Delevered;\n        emit SupplayCHainStep(\n            _itemIndex,\n            uint256(Items[itemIndex]._state),\n            address(Items[_itemIndex]._item)\n        );\n    }\n}\n",
  "sourcePath": "/home/rafsal/01-Development/oHwaH/Ethereum/truffle_t01/contracts/ItemTransfer.sol",
  "compiler": {
    "name": "solc",
    "version": "0.8.0+commit.c7dfd78e.Emscripten.clang"
  },
  "schemaVersion": "3.4.4",
  "updatedAt": "2022-01-01T16:20:51.363Z",
  "networkType": "ethereum",
  "devdoc": {
    "kind": "dev",
    "methods": {
      "owner()": {
        "details": "Returns the address of the current owner."
      },
      "renounceOwnership()": {
        "details": "Leaves the contract without owner. It will not be possible to call `onlyOwner` functions anymore. Can only be called by the current owner. NOTE: Renouncing ownership will leave the contract without an owner, thereby removing any functionality that is only available to the owner."
      },
      "transferOwnership(address)": {
        "details": "Transfers ownership of the contract to a new account (`newOwner`). Can only be called by the current owner."
      }
    },
    "version": 1
  },
  "userdoc": {
    "kind": "user",
    "methods": {},
    "version": 1
  }
}